{
  "transactions": [
    {
      "hash": "0xae96a915a6ebbb0a627a7ce1beb0cea4ff4c334a0ccbcd4457bc2dd772421ca9",
      "transactionType": "CREATE",
      "contractName": "LiquidityHelper",
      "contractAddress": "0xd891e672c1d8ad24d8111821b769e0af6dcd4087",
      "function": null,
      "arguments": [
        "0xE03A1074c86CFeDd5C142C4F04F1a1536e203543"
      ],
      "transaction": {
        "from": "0xd2aa21af4faa840dea890db2c6649aacf2c80ff3",
        "gas": "0xd3c25",
        "value": "0x0",
        "input": "0x60c034609457601f610bc238819003918201601f19168301916001600160401b03831184841017609857808492602094604052833981010312609457516001600160a01b03811681036094576080523360a052604051610b1590816100ad823960805181818160650152818160e9015281816107e7015281816108c2015261095f015260a051818181610618015261067c0152f35b5f80fd5b634e487b7160e01b5f52604160045260245ffdfe608080604052600436101561001c575b50361561001a575f80fd5b005b5f905f3560e01c9081633732e7b114610647575080638da5cb5b1461060357806391dd7346146100975763dc4c90d30361000f57346100945780600319360112610094576040517f00000000000000000000000000000000000000000000000000000000000000006001600160a01b03168152602090f35b80fd5b503461057f57602036600319011261057f5760043567ffffffffffffffff811161057f573660238201121561057f57806004013567ffffffffffffffff811161057f5781019136602484011161057f577f00000000000000000000000000000000000000000000000000000000000000006001600160a01b031692338490036105cb576040908390031261057f5761013d6044610136602485016109fe565b93016109fe565b600354604051936080850185811067ffffffffffffffff8211176105b7576040908152600291820b865292810b602086019081528584019283525f606087018181528551632d35e7ed60e11b815282546001600160a01b039081166004830152600154808216602484015260a081901c62ffffff16604484015260b81c860b606483015285541660848201529751840b60a4890152915190920b60c4870152915160e4860152905161010485015261014061012485015261014484018190528390610164908290875af1918215610574575f92610583575b508160801d9282600f0b935f81600f0b12610412575b50818412610260575b61025c8360405190602082015260208152610250604082610a62565b60405191829182610a0c565b0390f35b6001600160801b036102728395610a9c565b600154911691906001600160a01b0316806102f65750604051630476982d60e21b81529250602091839160049183915af180156102eb5761025c93506102bc575b505b5f80610234565b6102dd9060203d6020116102e4575b6102d58183610a62565b810190610ad0565b505f6102b3565b503d6102cb565b6040513d85823e3d90fd5b91813b1561040e5760405192632961046560e21b84526004840152838360248183865af19283156104035784936103e6575b5060015460405163a9059cbb60e01b81526001600160a01b038481166004830152602482019390935293602092859260449284929091165af19182156102eb576020926103bb575b50600460405180948193630476982d60e21b83525af180156102eb5761025c935061039c575b506102b5565b6103b49060203d6020116102e4576102d58183610a62565b505f610396565b6103da90833d85116103df575b6103d28183610a62565b810190610a84565b610370565b503d6103c8565b836103f391949294610a62565b6103ff5782915f610328565b8280fd5b6040513d86823e3d90fd5b8380fd5b6104236001600160801b0391610a9c565b5f549116906001600160a01b0316806104825750602060049160405192838092630476982d60e21b8252865af180156102eb57610463575b505b5f61022b565b61047b9060203d6020116102e4576102d58183610a62565b505f61045b565b823b1561057f5760405190632961046560e21b825260048201525f8160248183875af180156105745761055b575b50825460405163a9059cbb60e01b81526001600160a01b038481166004830152602482019390935291602091839116818681604481015b03925af180156102eb5761053e575b50604051630476982d60e21b815260208160048186865af180156102eb5761051f575b5061045d565b6105379060203d6020116102e4576102d58183610a62565b505f610519565b6105569060203d6020116103df576103d28183610a62565b6104f6565b6104e793505f61056a91610a62565b60205f93506104b0565b6040513d5f823e3d90fd5b5f80fd5b9091506040813d6040116105af575b8161059f60409383610a62565b8101031261057f5751905f610215565b3d9150610592565b634e487b7160e01b5f52604160045260245ffd5b60405162461bcd60e51b815260206004820152601060248201526f27b7363c902837b7b626b0b730b3b2b960811b6044820152606490fd5b3461057f575f36600319011261057f576040517f00000000000000000000000000000000000000000000000000000000000000006001600160a01b03168152602090f35b3660031901610100811261057f5760a01361057f5760a435908160020b80920361057f5760c435908160020b80920361057f577f00000000000000000000000000000000000000000000000000000000000000006001600160a01b031633036109cf57506001600160a01b036106bb610a36565b166001600160601b0360a01b5f5416175f5560018060a01b036106dc610a4c565b166001600160601b0360a01b600154161760015560443562ffffff8116810361057f576001546064358060020b810361057f5760b81b62ffffff60b81b169162ffffff60a01b9060a01b169065ffffffffffff60a01b1916171760015560843560018060a01b03811680910361057f576001600160601b0360a01b600254161760025560e435600355336001600160601b0360a01b6004541617600455610781610a36565b6001600160a01b031661093d575b610797610a4c565b6001600160a01b031661089f575b6107e2915f916040519160208301526040820152604081526107c8606082610a62565b604051809381926348c8949160e01b835260048301610a0c565b0381837f00000000000000000000000000000000000000000000000000000000000000006001600160a01b03165af180156105745761081d57005b3d805f833e61082c8183610a62565b81019060208183031261057f5780519067ffffffffffffffff821161057f570181601f8201121561057f57805167ffffffffffffffff81116105b75760405192610880601f8301601f191660200185610a62565b8184526020828401011161057f575f928160208094018483015e010152005b5f9160206001600160a01b036108b3610a4c565b60405163095ea7b360e01b81527f00000000000000000000000000000000000000000000000000000000000000006001600160a01b0316600482015286196024820152958692604492849291165af1918215610574576107e2935f9361091e575b50915091506107a5565b6109369060203d6020116103df576103d28183610a62565b5084610914565b5f60206001600160a01b03610950610a36565b60405163095ea7b360e01b81527f00000000000000000000000000000000000000000000000000000000000000006001600160a01b0316600482015284196024820152938492604492849291165af18015610574576109b0575b5061078f565b6109c89060203d6020116103df576103d28183610a62565b50826109aa565b62461bcd60e51b815260206004820152600a60248201526927b7363c9037bbb732b960b11b6044820152606490fd5b35908160020b820361057f57565b602060409281835280519182918282860152018484015e5f828201840152601f01601f1916010190565b6004356001600160a01b038116810361057f5790565b6024356001600160a01b038116810361057f5790565b90601f8019910116810190811067ffffffffffffffff8211176105b757604052565b9081602091031261057f5751801515810361057f5790565b600f0b6f7fffffffffffffffffffffffffffffff198114610abc575f0390565b634e487b7160e01b5f52601160045260245ffd5b9081602091031261057f57519056fea2646970667358221220809e7e60c3f33b59e534595ee55a904a669f3c900123a4dab90f4bdb1a6ec10164736f6c634300081a0033000000000000000000000000e03a1074c86cfedd5c142c4f04f1a1536e203543",
        "nonce": "0xab",
        "chainId": "0xaa36a7"
      },
      "additionalContracts": [],
      "isFixedGasLimit": false
    },
    {
      "hash": "0x004b1ae823e3415edf41b28049804f1beb30eca5eaf98abe2849fe210b13d2fd",
      "transactionType": "CALL",
      "contractName": null,
      "contractAddress": "0x4fcb0cc48be9711213c6304cc0be476a57f36692",
      "function": "transfer(address,uint256)",
      "arguments": [
        "0xD891E672c1d8ad24d8111821B769E0aF6Dcd4087",
        "10000000000000000000"
      ],
      "transaction": {
        "from": "0xd2aa21af4faa840dea890db2c6649aacf2c80ff3",
        "to": "0x4fcb0cc48be9711213c6304cc0be476a57f36692",
        "gas": "0x124be",
        "value": "0x0",
        "input": "0xa9059cbb000000000000000000000000d891e672c1d8ad24d8111821b769e0af6dcd40870000000000000000000000000000000000000000000000008ac7230489e80000",
        "nonce": "0xac",
        "chainId": "0xaa36a7"
      },
      "additionalContracts": [],
      "isFixedGasLimit": false
    },
    {
      "hash": "0x0482db393c944ea2b9617aa827a06dd365840c9e3b96daee794541eae6e1cc17",
      "transactionType": "CALL",
      "contractName": null,
      "contractAddress": "0xd891e672c1d8ad24d8111821b769e0af6dcd4087",
      "function": null,
      "arguments": null,
      "transaction": {
        "from": "0xd2aa21af4faa840dea890db2c6649aacf2c80ff3",
        "to": "0xd891e672c1d8ad24d8111821b769e0af6dcd4087",
        "gas": "0x785a",
        "value": "0x2386f26fc10000",
        "input": "0x",
        "nonce": "0xad",
        "chainId": "0xaa36a7"
      },
      "additionalContracts": [],
      "isFixedGasLimit": false
    },
    {
      "hash": "0x09505b8081907c4054322f312a8e546f3c7e34f76a85de499835a0c9a17bace6",
      "transactionType": "CALL",
      "contractName": "LiquidityHelper",
      "contractAddress": "0xd891e672c1d8ad24d8111821b769e0af6dcd4087",
      "function": "addLiquidity((address,address,uint24,int24,address),int24,int24,uint256)",
      "arguments": [
        "(0x0000000000000000000000000000000000000000, 0x4fcB0CC48BE9711213c6304CC0be476A57F36692, 3000, 60, 0xF1557E1D33C3770EDbAd3406719662224A1Ac080)",
        "-887220",
        "887220",
        "1000000000000000"
      ],
      "transaction": {
        "from": "0xd2aa21af4faa840dea890db2c6649aacf2c80ff3",
        "to": "0xd891e672c1d8ad24d8111821b769e0af6dcd4087",
        "gas": "0x80b9d",
        "value": "0x0",
        "input": "0x3732e7b100000000000000000000000000000000000000000000000000000000000000000000000000000000000000004fcb0cc48be9711213c6304cc0be476a57f366920000000000000000000000000000000000000000000000000000000000000bb8000000000000000000000000000000000000000000000000000000000000003c000000000000000000000000f1557e1d33c3770edbad3406719662224a1ac080fffffffffffffffffffffffffffffffffffffffffffffffffffffffffff2764c00000000000000000000000000000000000000000000000000000000000d89b400000000000000000000000000000000000000000000000000038d7ea4c68000",
        "nonce": "0xae",
        "chainId": "0xaa36a7"
      },
      "additionalContracts": [],
      "isFixedGasLimit": false
    }
  ],
  "receipts": [
    {
      "status": "0x1",
      "cumulativeGasUsed": "0xd3e830",
      "logs": [],
      "logsBloom": "0x00000000000000000000000000000000000000000000000000000000000000000000000000000000000000000000000000000000000000000000000000000000000000000000000000000000000000000000000000000000000000000000000000000000000000000000000000000000000000000000000000000000000000000000000000000000000000000000000000000000000000000000000000000000000000000000000000000000000000000000000000000000000000000000000000000000000000000000000000000000000000000000000000000000000000000000000000000000000000000000000000000000000000000000000000000000",
      "type": "0x2",
      "transactionHash": "0xae96a915a6ebbb0a627a7ce1beb0cea4ff4c334a0ccbcd4457bc2dd772421ca9",
      "transactionIndex": "0x58",
      "blockHash": "0x121ac8fc5f85a1a3c6425a3c646a2d4c8f182cfb30879939f2c43c4991ffb6bc",
      "blockNumber": "0x9b9b11",
      "gasUsed": "0xa2e44",
      "effectiveGasPrice": "0x3eccc342",
      "from": "0xd2aa21af4faa840dea890db2c6649aacf2c80ff3",
      "to": null,
      "contractAddress": "0xd891e672c1d8ad24d8111821b769e0af6dcd4087"
    },
    {
      "status": "0x1",
      "cumulativeGasUsed": "0x132acf5",
      "logs": [
        {
          "address": "0x4fcb0cc48be9711213c6304cc0be476a57f36692",
          "topics": [
            "0xddf252ad1be2c89b69c2b068fc378daa952ba7f163c4a11628f55a4df523b3ef",
            "0x000000000000000000000000d2aa21af4faa840dea890db2c6649aacf2c80ff3",
            "0x000000000000000000000000d891e672c1d8ad24d8111821b769e0af6dcd4087"
          ],
          "data": "0x0000000000000000000000000000000000000000000000008ac7230489e80000",
          "blockHash": "0xb476761a24742b64d2f7b638198384ad33fecc4c57fc59dc57b6dce40bcf8178",
          "blockNumber": "0x9b9b13",
          "blockTimestamp": "0x6984c9d8",
          "transactionHash": "0x004b1ae823e3415edf41b28049804f1beb30eca5eaf98abe2849fe210b13d2fd",
          "transactionIndex": "0x80",
          "logIndex": "0xf3",
          "removed": false
        }
      ],
      "logsBloom": "0x00000000000000000000000000000000000000000000000000000000000000000000000000000000000000000000000000000000000000000000000000000000008000000000000000200008000000000000000000000000000000000000000000000000000000000000000000000000000000000000000000000010000000000000000000000000000000000000000000000000000000000000000000000000009000000000000000000000000000000000000000000000000000000000000000000002000000000002000000000000020000000000000001000000000000000000000000800000000000000000000000000000040000000000000000000000",
      "type": "0x2",
      "transactionHash": "0x004b1ae823e3415edf41b28049804f1beb30eca5eaf98abe2849fe210b13d2fd",
      "transactionIndex": "0x80",
      "blockHash": "0xb476761a24742b64d2f7b638198384ad33fecc4c57fc59dc57b6dce40bcf8178",
      "blockNumber": "0x9b9b13",
      "gasUsed": "0xc82b",
      "effectiveGasPrice": "0x428e3fdd",
      "from": "0xd2aa21af4faa840dea890db2c6649aacf2c80ff3",
      "to": "0x4fcb0cc48be9711213c6304cc0be476a57f36692",
      "contractAddress": null
    },
    {
      "status": "0x1",
      "cumulativeGasUsed": "0x38ece33",
      "logs": [],
      "logsBloom": "0x00000000000000000000000000000000000000000000000000000000000000000000000000000000000000000000000000000000000000000000000000000000000000000000000000000000000000000000000000000000000000000000000000000000000000000000000000000000000000000000000000000000000000000000000000000000000000000000000000000000000000000000000000000000000000000000000000000000000000000000000000000000000000000000000000000000000000000000000000000000000000000000000000000000000000000000000000000000000000000000000000000000000000000000000000000000",
      "type": "0x2",
      "transactionHash": "0x0482db393c944ea2b9617aa827a06dd365840c9e3b96daee794541eae6e1cc17",
      "transactionIndex": "0xa2",
      "blockHash": "0x71e0a9497bb83385238d3e63a2d2f7cdfe1cadc9a59467177bd89c565eeaf15b",
      "blockNumber": "0x9b9b16",
      "gasUsed": "0x524b",
      "effectiveGasPrice": "0x3a177f44",
      "from": "0xd2aa21af4faa840dea890db2c6649aacf2c80ff3",
      "to": "0xd891e672c1d8ad24d8111821b769e0af6dcd4087",
      "contractAddress": null
    },
    {
      "status": "0x1",
      "cumulativeGasUsed": "0x9cfe01",
      "logs": [
        {
          "address": "0x4fcb0cc48be9711213c6304cc0be476a57f36692",
          "topics": [
            "0x8c5be1e5ebec7d5bd14f71427d1e84f3dd0314c0f7b2291e5b200ac8c7c3b925",
            "0x000000000000000000000000d891e672c1d8ad24d8111821b769e0af6dcd4087",
            "0x000000000000000000000000e03a1074c86cfedd5c142c4f04f1a1536e203543"
          ],
          "data": "0xffffffffffffffffffffffffffffffffffffffffffffffffffffffffffffffff",
          "blockHash": "0x2fe4e5d2ee71cc3cbc7113bac8f1400a3747df2622ccf3d3833aed951580ca31",
          "blockNumber": "0x9b9b18",
          "blockTimestamp": "0x6984ca20",
          "transactionHash": "0x09505b8081907c4054322f312a8e546f3c7e34f76a85de499835a0c9a17bace6",
          "transactionIndex": "0x5a",
          "logIndex": "0xb1",
          "removed": false
        },
        {
          "address": "0xe03a1074c86cfedd5c142c4f04f1a1536e203543",
          "topics": [
            "0xf208f4912782fd25c7f114ca3723a2d5dd6f3bcc3ac8db5af63baa85f711d5ec",
            "0x5b651a6fc49e70d083dfb77c11c2d7619710bad10cb82dd1e8905cd8d096a1da",
            "0x000000000000000000000000d891e672c1d8ad24d8111821b769e0af6dcd4087"
          ],
          "data": "0xfffffffffffffffffffffffffffffffffffffffffffffffffffffffffff2764c00000000000000000000000000000000000000000000000000000000000d89b400000000000000000000000000000000000000000000000000038d7ea4c680000000000000000000000000000000000000000000000000000000000000000000",
          "blockHash": "0x2fe4e5d2ee71cc3cbc7113bac8f1400a3747df2622ccf3d3833aed951580ca31",
          "blockNumber": "0x9b9b18",
          "blockTimestamp": "0x6984ca20",
          "transactionHash": "0x09505b8081907c4054322f312a8e546f3c7e34f76a85de499835a0c9a17bace6",
          "transactionIndex": "0x5a",
          "logIndex": "0xb2",
          "removed": false
        },
        {
          "address": "0x4fcb0cc48be9711213c6304cc0be476a57f36692",
          "topics": [
            "0xddf252ad1be2c89b69c2b068fc378daa952ba7f163c4a11628f55a4df523b3ef",
            "0x000000000000000000000000d891e672c1d8ad24d8111821b769e0af6dcd4087",
            "0x000000000000000000000000e03a1074c86cfedd5c142c4f04f1a1536e203543"
          ],
          "data": "0x00000000000000000000000000000000000000000000000000038d7ea4c68000",
          "blockHash": "0x2fe4e5d2ee71cc3cbc7113bac8f1400a3747df2622ccf3d3833aed951580ca31",
          "blockNumber": "0x9b9b18",
          "blockTimestamp": "0x6984ca20",
          "transactionHash": "0x09505b8081907c4054322f312a8e546f3c7e34f76a85de499835a0c9a17bace6",
          "transactionIndex": "0x5a",
          "logIndex": "0xb3",
          "removed": false
        }
      ],
      "logsBloom": "0x00000000000000000000000000000000000000000000000000000000000000000000000000000000000000000000000000000100000000000000000000200000000000000000000000200008000000000000000000000000000000000000000000000000000000000000000080000000000000000000100000001010000000000000000001000000000010000000000000000000000000000000000000000000029004000000000000000000000000000000000000000000020000000000000000000002000000000000000000000000020000000000000001001000000000001010000000800000040000000000000004000000000000000000000000000000",
      "type": "0x2",
      "transactionHash": "0x09505b8081907c4054322f312a8e546f3c7e34f76a85de499835a0c9a17bace6",
      "transactionIndex": "0x5a",
      "blockHash": "0x2fe4e5d2ee71cc3cbc7113bac8f1400a3747df2622ccf3d3833aed951580ca31",
      "blockNumber": "0x9b9b18",
      "gasUsed": "0x58049",
      "effectiveGasPrice": "0x3d8de425",
      "from": "0xd2aa21af4faa840dea890db2c6649aacf2c80ff3",
      "to": "0xd891e672c1d8ad24d8111821b769e0af6dcd4087",
      "contractAddress": null
    }
  ],
  "libraries": [],
  "pending": [],
  "returns": {},
  "timestamp": 1770310176497,
  "chain": 11155111,
  "commit": "5808f8b"
}